{
  "contractName": "Test",
  "abi": [
    {
      "inputs": [],
      "name": "consecutiveWins",
      "outputs": [
        {
          "internalType": "uint256",
          "name": "",
          "type": "uint256"
        }
      ],
      "stateMutability": "view",
      "type": "function",
      "constant": true
    },
    {
      "inputs": [
        {
          "internalType": "bool",
          "name": "_guess",
          "type": "bool"
        }
      ],
      "name": "flip",
      "outputs": [
        {
          "internalType": "bool",
          "name": "",
          "type": "bool"
        }
      ],
      "stateMutability": "nonpayable",
      "type": "function"
    }
  ],
  "bytecode": "0x6080604052600080557f800000000000000000000000000000000000000000000000000000000000000060025534801561003857600080fd5b5061036a806100486000396000f3fe608060405234801561001057600080fd5b50600436106100365760003560e01c80631d263f671461003b578063e6f334d71461006b575b600080fd5b61005560048036038101906100509190610175565b610089565b60405161006291906101c0565b60405180910390f35b61007361012e565b60405161008091906101db565b60405180910390f35b6000806100a060014361013490919063ffffffff16565b4060001c90508060015414156100b557600080fd5b8060018190555060006100d36002548361014a90919063ffffffff16565b90506000600182146100e65760006100e9565b60015b9050841515811515141561011a5760008081548092919061010990610271565b919050555060019350505050610129565b60008081905550600093505050505b919050565b60005481565b600081836101429190610227565b905092915050565b6000818361015891906101f6565b905092915050565b60008135905061016f8161031d565b92915050565b60006020828403121561018b5761018a610318565b5b600061019984828501610160565b91505092915050565b6101ab8161025b565b82525050565b6101ba81610267565b82525050565b60006020820190506101d560008301846101a2565b92915050565b60006020820190506101f060008301846101b1565b92915050565b600061020182610267565b915061020c83610267565b92508261021c5761021b6102e9565b5b828204905092915050565b600061023282610267565b915061023d83610267565b9250828210156102505761024f6102ba565b5b828203905092915050565b60008115159050919050565b6000819050919050565b600061027c82610267565b91507fffffffffffffffffffffffffffffffffffffffffffffffffffffffffffffffff8214156102af576102ae6102ba565b5b600182019050919050565b7f4e487b7100000000000000000000000000000000000000000000000000000000600052601160045260246000fd5b7f4e487b7100000000000000000000000000000000000000000000000000000000600052601260045260246000fd5b600080fd5b6103268161025b565b811461033157600080fd5b5056fea2646970667358221220321b212e2553964e0f2a15ca3369b25533a9212ca64e04c4fafdcb486a8e43c864736f6c63430008060033",
  "immutableReferences": {},
  "source": "// SPDX-License-Identifier: MIT\npragma solidity ^0.8.0;\n\nimport \"./SafeMath.sol\";\ncontract Test {\n    using SafeMath for uint;\n    using SafeMath for uint256;\n\n    uint256 public consecutiveWins = 0;\n    uint256 lastHash;\n    uint256 FACTOR = 57896044618658097711785492504343953926634992332820282019728792003956564819968;\n\n    function flip(bool _guess) public returns (bool) {\n        uint256 blockValue = uint256(blockhash(block.number.sub(1)));\n\n        if (lastHash == blockValue) {\n            revert();\n        }\n\n        lastHash = blockValue;\n        uint256 coinFlip = blockValue.div(FACTOR);\n        bool side = coinFlip == 1 ? true : false;\n\n        if (side == _guess) {\n            consecutiveWins++;\n            return true;\n        } else {\n            consecutiveWins = 0;\n            return false;\n        }\n    }\n}\n",
  "sourcePath": "/home/jack/Techtest/contracts/Test.sol",
  "compiler": {
    "name": "solc",
    "version": "0.8.6+commit.11564f7e.Emscripten.clang"
  },
  "schemaVersion": "3.4.4",
  "updatedAt": "2022-05-27T14:56:27.388Z",
  "networkType": "ethereum",
  "devdoc": {
    "kind": "dev",
    "methods": {},
    "version": 1
  },
  "userdoc": {
    "kind": "user",
    "methods": {},
    "version": 1
  }
}